:020000040800F2
:1000000030040020050100086902000861020008B0
:1000100065020008450100087505000800000000A1
:10002000000000000000000000000000E9030008DC
:100030004901000800000000F10200081304000854
:100040001B0100081B0100081B0100081B01000820
:100050001B0100081B0100081B0100081B01000810
:100060001B0100081B0100081B0100081B01000800
:100070001B0100081B0100081B0100081B010008F0
:100080001B0100081B0100081B0100081B010008E0
:100090001B0100081B0100081B0100081B010008D0
:1000A0001B0100081B0100081B0100081B010008C0
:1000B0001B0100081B0100081B0100081B010008B0
:1000C0001B0100081B0100081B0100081B010008A0
:1000D0001B010008150400081B0100081B01000893
:1000E0001B0100081B0100081B010008DFF810D0ED
:1000F00000F016F800480047E1060008AFF3008062
:100100003004002005480047FEE7FEE7FEE7FEE773
:10011000FEE7FEE7FEE7FEE7FEE7FEE7ED0000088C
:10012000064C074D06E0E06840F0010394E8070044
:1001300098471034AC42F6D3FFF7DCFF0007000805
:100140002007000800BFFEE770472DE9F041024696
:1001500000250026002000230024002791F803C07A
:100160000CF00F0591F803C00CF0100CBCF1000F5F
:1001700003D091F802C04CEA050591F800C0BCF12B
:10018000000F31D0146800202BE04FF0010C0CFA66
:1001900000F3B1F800C00CEA03069E4220D18300B0
:1001A0004FF00F0C0CFA03F7BC4305FA03FC4CEAC2
:1001B000040491F803C0BCF1280F06D14FF0010CE4
:1001C0000CFA00FCC2F814C00AE091F803C0BCF1BC
:1001D000480F05D14FF0010C0CFA00FCC2F810C01A
:1001E000401C0828D1D31460B1F800C0BCF1FF0F47
:1001F00034DD546800202EE000F1080C4FF00108B7
:1002000008FA0CF3B1F800C00CEA03069E4221D1B3
:1002100083004FF00F0C0CFA03F7BC4305FA03FC04
:100220004CEA040491F803C0BCF1280F05D100F199
:10023000080C08FA0CF8C2F8148091F803C0BCF15D
:10024000480F07D100F1080C4FF0010808FA0CF82C
:10025000C2F81080401C0828CED35460BDE8F0815D
:1002600000BFFEE700BFFEE77047000070B5002149
:1002700000230F22C47804B3154C246804F4E0640E
:10028000C4F5E064210AC1F10403CA40447804FAC9
:1002900003F184781440214309010E4C0678A155DE
:1002A000047804F01F050124AC4005786D11AD0001
:1002B00005F1E025C5F8004109E0047804F01F05C8
:1002C0000124AC40044D0678761145F8264070BDF7
:1002D0000CED00E000E400E080E100E002490143B1
:1002E000024A1160704700000000FA050CED00E0C2
:1002F0007047000029B1064A92690243044B9A6193
:1003000004E0034A92698243014B9A6170470000FE
:100310000010024030B500210022002400232D4DA2
:100320006D6805F00C0121B1042905D0082923D1FD
:1003300005E0294D056022E0274D05601FE0254DB1
:100340006D6805F47012234D6D6805F48034022544
:1003500005EB92421CB9214D554305600BE01D4D44
:100360006D6805F400351DB11C4D5543056002E074
:10037000194D5543056002E0174D056000BF00BFF1
:10038000144D6D6805F0F0010909154D6B5C0568A9
:10039000DD4045600F4D6D6805F4E061090A104DC0
:1003A0006B5C4568DD4085600A4D6D6805F4605101
:1003B000C90A0B4D6B5C4568DD40C560054D6D6835
:1003C00005F44041890B074D6B5CC568B5FBF3F53F
:1003D000056130BD0010024000127A0000093D00A6
:1003E00018000020280000207047042808D14FF092
:1003F000E021096941F004014FF0E022116107E0BA
:100400004FF0E021096921F004014FF0E022116171
:1004100070477047704721B1828942F4005282814F
:1004200004E082894DF6FF731A40828170470246CC
:100430000020B1F5007F00D100BF13880B400BB145
:10044000012000E000207047F0B50346002400269C
:100450000025002040F66A17B94200D100BF1846B7
:10046000C1F3421401F01F06012707FA06F5012C1B
:1004700001D10C3004E0022C01D1103000E0143026
:100480001AB107682F43076002E00768AF430760AF
:10049000F0BD00002DE9F04786B005460E46002469
:1004A000A24600BFA1460027B08900B100BF2F4679
:1004B0002C8A4CF6FF700440F08804432C82AC89EF
:1004C0004EF6F3100440B08831890843718908431F
:1004D0000443AC81AC8A4FF6FF400440B08904432A
:1004E000AC8201A8FFF716FF1F48874202D1DDF852
:1004F00010A001E0DDF80CA0A88900F4004040B194
:100500000AEBCA0000EB0A1031684900B0FBF1F8B1
:1005100007E00AEBCA0000EB0A1031688900B0FB63
:10052000F1F86420B8FBF0F004012009642101FB1C
:100530001089A88900F4004040B1322000EBC900C6
:10054000B0FBF1F000F00700044308E0322000EBBC
:1005500009106421B0FBF1F000F00F0004432C817E
:1005600006B0BDE8F087000000380140C1F3080282
:100570008280704700BFFEE710B586B004460121B7
:1005800044F20400FFF7B6FE4FF40070ADF814001B
:1005900018208DF8170003208DF8160005A91648BD
:1005A000FFF7D3FD4FF48060ADF8140004208DF800
:1005B000170005A91048FFF7C8FD01940020ADF809
:1005C0000800ADF80A00ADF80C00ADF810000C20E2
:1005D000ADF80E0001A90948FFF75CFF00F010F824
:1005E000012240F225510548FFF72EFF0121034863
:1005F000FFF711FF06B010BD0008014000380140B0
:1006000008B54FF4A060FFF769FE25208DF80000C3
:1006100001208DF801008DF802008DF80300684676
:10062000FFF724FE08BD0000014A024900F013B89C
:10063000BD0600082C00002002E008C8121F08C1F7
:10064000002AFAD170477047002001E001C1121F53
:10065000002AFBD170472DE9F04116460F460446AB
:10066000002503E03946B047641C6D1C2078002843
:10067000F8D12846BDE8F08110B56FF00400FFF70F
:10068000B4FE0A4800680A49B0FBF1F00949087055
:100690000846007800EB4001C1EBC0104FF6FF7137
:1006A00001EAC0000449088010BD000000000020DD
:1006B00000127A00140000201600002070B50446D5
:1006C0000D46A1B20548FFF751FF00BF8021034846
:1006D000FFF7ADFE0028F9D0204670BD003801407C
:1006E000FFF7CAFF4FF4E130FFF746FF02A0FFF724
:1006F0009BFF00BFFEE7000068656C6C6F0D0A0091
:100700002007000800000020300000003806000824
:1007100050070008300000200004000048060008D0
:1007200000A24A04000000000000000001020304CF
:100730000607080900000000000000000102030491
:10074000010203040607080902040608000000006D
:0400000508000105E9
:00000001FF
